{
  "contractName": "TestingCenter",
  "abi": [
    {
      "anonymous": false,
      "inputs": [
        {
          "indexed": false,
          "internalType": "address",
          "name": "PatientSC",
          "type": "address"
        },
        {
          "indexed": false,
          "internalType": "address",
          "name": "EA",
          "type": "address"
        },
        {
          "indexed": false,
          "internalType": "string",
          "name": "info",
          "type": "string"
        }
      ],
      "name": "PatientAnnouncement",
      "type": "event"
    },
    {
      "anonymous": false,
      "inputs": [
        {
          "indexed": false,
          "internalType": "address",
          "name": "_PatientSC",
          "type": "address"
        },
        {
          "indexed": false,
          "internalType": "address",
          "name": "_EA",
          "type": "address"
        }
      ],
      "name": "PatientTestResultsCompleted",
      "type": "event"
    },
    {
      "constant": true,
      "inputs": [],
      "name": "name",
      "outputs": [
        {
          "internalType": "string",
          "name": "",
          "type": "string"
        }
      ],
      "payable": false,
      "stateMutability": "view",
      "type": "function"
    },
    {
      "constant": true,
      "inputs": [],
      "name": "owner",
      "outputs": [
        {
          "internalType": "address",
          "name": "",
          "type": "address"
        }
      ],
      "payable": false,
      "stateMutability": "view",
      "type": "function"
    },
    {
      "constant": false,
      "inputs": [
        {
          "internalType": "address",
          "name": "patientSC",
          "type": "address"
        },
        {
          "internalType": "address",
          "name": "myAddress",
          "type": "address"
        }
      ],
      "name": "PublishTestResults",
      "outputs": [
        {
          "internalType": "bool",
          "name": "sufficient",
          "type": "bool"
        }
      ],
      "payable": false,
      "stateMutability": "nonpayable",
      "type": "function"
    },
    {
      "constant": false,
      "inputs": [
        {
          "internalType": "address",
          "name": "PatientSC",
          "type": "address"
        },
        {
          "internalType": "address",
          "name": "EA",
          "type": "address"
        },
        {
          "internalType": "string",
          "name": "info",
          "type": "string"
        }
      ],
      "name": "PublishUpdates",
      "outputs": [],
      "payable": false,
      "stateMutability": "nonpayable",
      "type": "function"
    },
    {
      "constant": false,
      "inputs": [
        {
          "internalType": "address",
          "name": "PatientSc",
          "type": "address"
        },
        {
          "internalType": "address",
          "name": "EA",
          "type": "address"
        }
      ],
      "name": "ReceivedSpecimen",
      "outputs": [],
      "payable": false,
      "stateMutability": "nonpayable",
      "type": "function"
    }
  ],
  "bytecode": "0x60806040526040518060400160405280601881526020017f484b204865616c74682054657374696e672063656e74657200000000000000008152506000908051906020019061004f9291906100b7565b50733bf224e121396ed9a0bf564e7524cff0b983fcb8600160006101000a81548173ffffffffffffffffffffffffffffffffffffffff021916908373ffffffffffffffffffffffffffffffffffffffff1602179055503480156100b157600080fd5b5061015c565b828054600181600116156101000203166002900490600052602060002090601f016020900481019282601f106100f857805160ff1916838001178555610126565b82800160010185558215610126579182015b8281111561012557825182559160200191906001019061010a565b5b5090506101339190610137565b5090565b61015991905b8082111561015557600081600090555060010161013d565b5090565b90565b6106bb8061016b6000396000f3fe608060405234801561001057600080fd5b50600436106100575760003560e01c806306fdde031461005c57806317f00e2b146100df5780637183ae21146101435780638bd4d7f7146101bf5780638da5cb5b146102ba575b600080fd5b610064610304565b6040518080602001828103825283818151815260200191508051906020019080838360005b838110156100a4578082015181840152602081019050610089565b50505050905090810190601f1680156100d15780820380516001836020036101000a031916815260200191505b509250505060405180910390f35b610141600480360360408110156100f557600080fd5b81019080803573ffffffffffffffffffffffffffffffffffffffff169060200190929190803573ffffffffffffffffffffffffffffffffffffffff1690602001909291905050506103a2565b005b6101a56004803603604081101561015957600080fd5b81019080803573ffffffffffffffffffffffffffffffffffffffff169060200190929190803573ffffffffffffffffffffffffffffffffffffffff169060200190929190505050610400565b604051808215151515815260200191505060405180910390f35b6102b8600480360360608110156101d557600080fd5b81019080803573ffffffffffffffffffffffffffffffffffffffff169060200190929190803573ffffffffffffffffffffffffffffffffffffffff1690602001909291908035906020019064010000000081111561023257600080fd5b82018360208201111561024457600080fd5b8035906020019184600183028401116401000000008311171561026657600080fd5b91908080601f016020809104026020016040519081016040528093929190818152602001838380828437600081840152601f19601f8201169050808301925050505050505091929192905050506104fd565b005b6102c2610660565b604051808273ffffffffffffffffffffffffffffffffffffffff1673ffffffffffffffffffffffffffffffffffffffff16815260200191505060405180910390f35b60008054600181600116156101000203166002900480601f01602080910402602001604051908101604052809291908181526020018280546001816001161561010002031660029004801561039a5780601f1061036f5761010080835404028352916020019161039a565b820191906000526020600020905b81548152906001019060200180831161037d57829003601f168201915b505050505081565b600160009054906101000a900473ffffffffffffffffffffffffffffffffffffffff1673ffffffffffffffffffffffffffffffffffffffff163373ffffffffffffffffffffffffffffffffffffffff16146103fc57600080fd5b5050565b6000600160009054906101000a900473ffffffffffffffffffffffffffffffffffffffff1673ffffffffffffffffffffffffffffffffffffffff163373ffffffffffffffffffffffffffffffffffffffff161461045c57600080fd5b7f57f556c0cdd86e1d793bcf300bd694c225385260b4f40d9d09cf998f2ccb24c68383604051808373ffffffffffffffffffffffffffffffffffffffff1673ffffffffffffffffffffffffffffffffffffffff1681526020018273ffffffffffffffffffffffffffffffffffffffff1673ffffffffffffffffffffffffffffffffffffffff1681526020019250505060405180910390a16001905092915050565b600160009054906101000a900473ffffffffffffffffffffffffffffffffffffffff1673ffffffffffffffffffffffffffffffffffffffff163373ffffffffffffffffffffffffffffffffffffffff161461055757600080fd5b7f5ab1829e53a9c5db6277f8feb3154a36b28067295e93727225ccf4eb65529351838383604051808473ffffffffffffffffffffffffffffffffffffffff1673ffffffffffffffffffffffffffffffffffffffff1681526020018373ffffffffffffffffffffffffffffffffffffffff1673ffffffffffffffffffffffffffffffffffffffff16815260200180602001828103825283818151815260200191508051906020019080838360005b8381101561061f578082015181840152602081019050610604565b50505050905090810190601f16801561064c5780820380516001836020036101000a031916815260200191505b5094505050505060405180910390a1505050565b600160009054906101000a900473ffffffffffffffffffffffffffffffffffffffff168156fea265627a7a723158207e4fbb2e4f2ec6dac630236104f9efab598672e2f332de1588b7741f2d454e5b64736f6c63430005100032",
  "source": "pragma solidity >=0.4.21 <0.7.0;\n\n\ncontract TestingCenter{\n    string public name = 'HK Health Testing center';\n    address public owner = 0x3BF224e121396eD9a0bf564E7524CFf0b983Fcb8;\n    \n    modifier OnlyOwner(){\n        require(msg.sender == owner);\n        _;\n    }\n\n//events\n    // event PatientTestResultsCompleted(bytes32 IPFShash, address PatientSC, address EA,uint256 time);\n    event PatientTestResultsCompleted(address  _PatientSC, address  _EA);\n    // event PatientAnnouncement(address PatientSC, address EA,uint256 time, string info);\n    event PatientAnnouncement(address PatientSC, address EA, string info);\n    \n    \n     //Use the following argument (SHA256) for testing the IPFShash\n    //0x64EC88CA00B268E5BA1A35678A1B5316D212F4F366B2477232534A8AECA37F3C\n    //[\"0x64\",\"0xEC\",\"0x88\",\"0xCA\",\"0x00\",\"0xB2\",\"0x68\",\"0xE5\",\"0xBA\",\"0x1A\",\"0x35\",\"0x67\",\"0x8A\",\"0x1B\",\"0x53\",\"0x16\",\"0xD2\",\"0x12\",\"0xF4\",\"0xF3\",\"0x66\",\"0xB2\",\"0x47\",\"0x72\",\"0x32\",\"0x53\",\"0x4A\",\"0x8A\",\"0xEC\",\"0xA3\",\"0x7F\",\"0x3C\"]\n    \n  //passing an address in the testing should be in double quotes  \".....\"\n//   function PublishTestResults(bytes32 IPFShash, address PatientSC, address EA,uint256 time) OnlyOwner public {\n//        emit PatientTestResultsCompleted(IPFShash, PatientSC,  EA, time);\n//     }\n\n    function PublishTestResults( address patientSC, address myAddress) OnlyOwner public  returns(bool sufficient) {\n       emit PatientTestResultsCompleted( patientSC,  myAddress);\n       return true;\n    }\n\n   \n    function PublishUpdates(address PatientSC, address EA, string memory info) OnlyOwner public{\n       emit PatientAnnouncement( PatientSC,  EA, info);\n    }\n\n    function ReceivedSpecimen(address PatientSc, address EA)OnlyOwner public{\n        \n    }\n}",
  "sourcePath": "/Users/modiejun/Desktop/Coding/Blockchain/hackathon/contracts/TestingCenter.sol",
  "compiler": {
    "name": "solc",
    "version": "0.5.16+commit.9c3226ce.Emscripten.clang"
  },
  "schemaVersion": "3.3.3",
  "updatedAt": "2021-01-31T00:38:04.243Z",
  "networkType": "ethereum",
  "devdoc": {
    "methods": {}
  },
  "userdoc": {
    "methods": {}
  }
}